{
  "_format": "hh-sol-artifact-1",
  "contractName": "TemperatureLogger",
  "sourceName": "contracts/TemperatureLogger.sol",
  "abi": [
    {
      "inputs": [],
      "stateMutability": "nonpayable",
      "type": "constructor"
    },
    {
      "anonymous": false,
      "inputs": [
        {
          "indexed": false,
          "internalType": "string",
          "name": "deviceId",
          "type": "string"
        }
      ],
      "name": "DeviceAuthorized",
      "type": "event"
    },
    {
      "anonymous": false,
      "inputs": [
        {
          "indexed": false,
          "internalType": "string",
          "name": "deviceId",
          "type": "string"
        }
      ],
      "name": "DeviceRevoked",
      "type": "event"
    },
    {
      "anonymous": false,
      "inputs": [
        {
          "indexed": true,
          "internalType": "uint256",
          "name": "index",
          "type": "uint256"
        },
        {
          "indexed": true,
          "internalType": "string",
          "name": "deviceId",
          "type": "string"
        },
        {
          "indexed": false,
          "internalType": "int256",
          "name": "tempC100",
          "type": "int256"
        },
        {
          "indexed": false,
          "internalType": "uint256",
          "name": "timestamp",
          "type": "uint256"
        }
      ],
      "name": "TemperatureRecorded",
      "type": "event"
    },
    {
      "inputs": [
        {
          "internalType": "string",
          "name": "deviceId",
          "type": "string"
        }
      ],
      "name": "authorizeDevice",
      "outputs": [],
      "stateMutability": "nonpayable",
      "type": "function"
    },
    {
      "inputs": [
        {
          "internalType": "string",
          "name": "",
          "type": "string"
        }
      ],
      "name": "authorizedDevices",
      "outputs": [
        {
          "internalType": "bool",
          "name": "",
          "type": "bool"
        }
      ],
      "stateMutability": "view",
      "type": "function"
    },
    {
      "inputs": [],
      "name": "getAllReadings",
      "outputs": [
        {
          "components": [
            {
              "internalType": "uint256",
              "name": "timestamp",
              "type": "uint256"
            },
            {
              "internalType": "int256",
              "name": "temperatureC",
              "type": "int256"
            },
            {
              "internalType": "string",
              "name": "deviceId",
              "type": "string"
            }
          ],
          "internalType": "struct TemperatureLogger.Reading[]",
          "name": "",
          "type": "tuple[]"
        }
      ],
      "stateMutability": "view",
      "type": "function"
    },
    {
      "inputs": [],
      "name": "getLatestReading",
      "outputs": [
        {
          "internalType": "uint256",
          "name": "timestamp",
          "type": "uint256"
        },
        {
          "internalType": "int256",
          "name": "temperatureC",
          "type": "int256"
        },
        {
          "internalType": "string",
          "name": "deviceId",
          "type": "string"
        }
      ],
      "stateMutability": "view",
      "type": "function"
    },
    {
      "inputs": [
        {
          "internalType": "uint256",
          "name": "index",
          "type": "uint256"
        }
      ],
      "name": "getReading",
      "outputs": [
        {
          "internalType": "uint256",
          "name": "timestamp",
          "type": "uint256"
        },
        {
          "internalType": "int256",
          "name": "temperatureC",
          "type": "int256"
        },
        {
          "internalType": "string",
          "name": "deviceId",
          "type": "string"
        }
      ],
      "stateMutability": "view",
      "type": "function"
    },
    {
      "inputs": [],
      "name": "getTotalReadings",
      "outputs": [
        {
          "internalType": "uint256",
          "name": "",
          "type": "uint256"
        }
      ],
      "stateMutability": "view",
      "type": "function"
    },
    {
      "inputs": [],
      "name": "owner",
      "outputs": [
        {
          "internalType": "address",
          "name": "",
          "type": "address"
        }
      ],
      "stateMutability": "view",
      "type": "function"
    },
    {
      "inputs": [
        {
          "internalType": "uint256",
          "name": "",
          "type": "uint256"
        }
      ],
      "name": "readings",
      "outputs": [
        {
          "internalType": "uint256",
          "name": "timestamp",
          "type": "uint256"
        },
        {
          "internalType": "int256",
          "name": "temperatureC",
          "type": "int256"
        },
        {
          "internalType": "string",
          "name": "deviceId",
          "type": "string"
        }
      ],
      "stateMutability": "view",
      "type": "function"
    },
    {
      "inputs": [
        {
          "internalType": "int256",
          "name": "temperatureC100",
          "type": "int256"
        },
        {
          "internalType": "string",
          "name": "deviceId",
          "type": "string"
        }
      ],
      "name": "recordTemperature",
      "outputs": [],
      "stateMutability": "nonpayable",
      "type": "function"
    },
    {
      "inputs": [
        {
          "internalType": "string",
          "name": "deviceId",
          "type": "string"
        }
      ],
      "name": "revokeDevice",
      "outputs": [],
      "stateMutability": "nonpayable",
      "type": "function"
    }
  ],
  "bytecode": "0x608060405234801561001057600080fd5b5033600160006101000a81548173ffffffffffffffffffffffffffffffffffffffff021916908373ffffffffffffffffffffffffffffffffffffffff160217905550611563806100616000396000f3fe608060405234801561001057600080fd5b506004361061009d5760003560e01c80636ed71357116100665780636ed71357146101585780638da5cb5b14610176578063aa4e054614610194578063cedf0171146101b4578063d5da886d146101d25761009d565b806287a788146100a257806302b72250146100d457806307a6e3f1146100f05780632c8958281461010c578063470defe714610128575b600080fd5b6100bc60048036038101906100b791906109fd565b610204565b6040516100cb93929190610ae2565b60405180910390f35b6100ee60048036038101906100e99190610c55565b61031d565b005b61010a60048036038101906101059190610cca565b61041e565b005b61012660048036038101906101219190610c55565b61055b565b005b610142600480360381019061013d9190610c55565b61065c565b60405161014f9190610d41565b60405180910390f35b610160610692565b60405161016d9190610d5c565b60405180910390f35b61017e61069e565b60405161018b9190610db8565b60405180910390f35b61019c6106c4565b6040516101ab93929190610ae2565b60405180910390f35b6101bc6107ec565b6040516101c99190610f4d565b60405180910390f35b6101ec60048036038101906101e791906109fd565b6108f1565b6040516101fb93929190610ae2565b60405180910390f35b60008060606000805490508410610250576040517f08c379a000000000000000000000000000000000000000000000000000000000815260040161024790610fbb565b60405180910390fd5b600080858154811061026557610264610fdb565b5b90600052602060002090600302019050806000015481600101548260020180805461028f90611039565b80601f01602080910402602001604051908101604052809291908181526020018280546102bb90611039565b80156103085780601f106102dd57610100808354040283529160200191610308565b820191906000526020600020905b8154815290600101906020018083116102eb57829003601f168201915b50505050509050935093509350509193909250565b600160009054906101000a900473ffffffffffffffffffffffffffffffffffffffff1673ffffffffffffffffffffffffffffffffffffffff163373ffffffffffffffffffffffffffffffffffffffff16146103ad576040517f08c379a00000000000000000000000000000000000000000000000000000000081526004016103a4906110b6565b60405180910390fd5b60016002826040516103bf9190611112565b908152602001604051809103902060006101000a81548160ff0219169083151502179055507f2daf76572e35c921ce6188d68a5e98a2477d3c19acfc20998d0f8ac2130eb838816040516104139190611129565b60405180910390a150565b8060028160405161042f9190611112565b908152602001604051809103902060009054906101000a900460ff1661048a576040517f08c379a000000000000000000000000000000000000000000000000000000000815260040161048190611197565b60405180910390fd5b60008080549050905060006040518060600160405280428152602001868152602001858152509080600181540180825580915050600190039060005260206000209060030201600090919091909150600082015181600001556020820151816001015560408201518160020190816105029190611363565b505050826040516105139190611112565b6040518091039020817f7de20b2893c03d647278776ca2402b0b9838f227919d57b03a538594f5038487864260405161054d929190611435565b60405180910390a350505050565b600160009054906101000a900473ffffffffffffffffffffffffffffffffffffffff1673ffffffffffffffffffffffffffffffffffffffff163373ffffffffffffffffffffffffffffffffffffffff16146105eb576040517f08c379a00000000000000000000000000000000000000000000000000000000081526004016105e2906110b6565b60405180910390fd5b60006002826040516105fd9190611112565b908152602001604051809103902060006101000a81548160ff0219169083151502179055507ff1189f50705fa644d962b257b2b113fca76722791e2702194326e61ba3e5bd78816040516106519190611129565b60405180910390a150565b6002818051602081018201805184825260208301602085012081835280955050505050506000915054906101000a900460ff1681565b60008080549050905090565b600160009054906101000a900473ffffffffffffffffffffffffffffffffffffffff1681565b60008060606000808054905011610710576040517f08c379a0000000000000000000000000000000000000000000000000000000008152600401610707906114aa565b60405180910390fd5b600080600160008054905061072591906114f9565b8154811061073657610735610fdb565b5b90600052602060002090600302019050806000015481600101548260020180805461076090611039565b80601f016020809104026020016040519081016040528092919081815260200182805461078c90611039565b80156107d95780601f106107ae576101008083540402835291602001916107d9565b820191906000526020600020905b8154815290600101906020018083116107bc57829003601f168201915b5050505050905093509350935050909192565b60606000805480602002602001604051908101604052809291908181526020016000905b828210156108e85783829060005260206000209060030201604051806060016040529081600082015481526020016001820154815260200160028201805461085790611039565b80601f016020809104026020016040519081016040528092919081815260200182805461088390611039565b80156108d05780601f106108a5576101008083540402835291602001916108d0565b820191906000526020600020905b8154815290600101906020018083116108b357829003601f168201915b50505050508152505081526020019060010190610810565b50505050905090565b6000818154811061090157600080fd5b906000526020600020906003020160009150905080600001549080600101549080600201805461093090611039565b80601f016020809104026020016040519081016040528092919081815260200182805461095c90611039565b80156109a95780601f1061097e576101008083540402835291602001916109a9565b820191906000526020600020905b81548152906001019060200180831161098c57829003601f168201915b5050505050905083565b6000604051905090565b600080fd5b600080fd5b6000819050919050565b6109da816109c7565b81146109e557600080fd5b50565b6000813590506109f7816109d1565b92915050565b600060208284031215610a1357610a126109bd565b5b6000610a21848285016109e8565b91505092915050565b610a33816109c7565b82525050565b6000819050919050565b610a4c81610a39565b82525050565b600081519050919050565b600082825260208201905092915050565b60005b83811015610a8c578082015181840152602081019050610a71565b60008484015250505050565b6000601f19601f8301169050919050565b6000610ab482610a52565b610abe8185610a5d565b9350610ace818560208601610a6e565b610ad781610a98565b840191505092915050565b6000606082019050610af76000830186610a2a565b610b046020830185610a43565b8181036040830152610b168184610aa9565b9050949350505050565b600080fd5b600080fd5b7f4e487b7100000000000000000000000000000000000000000000000000000000600052604160045260246000fd5b610b6282610a98565b810181811067ffffffffffffffff82111715610b8157610b80610b2a565b5b80604052505050565b6000610b946109b3565b9050610ba08282610b59565b919050565b600067ffffffffffffffff821115610bc057610bbf610b2a565b5b610bc982610a98565b9050602081019050919050565b82818337600083830152505050565b6000610bf8610bf384610ba5565b610b8a565b905082815260208101848484011115610c1457610c13610b25565b5b610c1f848285610bd6565b509392505050565b600082601f830112610c3c57610c3b610b20565b5b8135610c4c848260208601610be5565b91505092915050565b600060208284031215610c6b57610c6a6109bd565b5b600082013567ffffffffffffffff811115610c8957610c886109c2565b5b610c9584828501610c27565b91505092915050565b610ca781610a39565b8114610cb257600080fd5b50565b600081359050610cc481610c9e565b92915050565b60008060408385031215610ce157610ce06109bd565b5b6000610cef85828601610cb5565b925050602083013567ffffffffffffffff811115610d1057610d0f6109c2565b5b610d1c85828601610c27565b9150509250929050565b60008115159050919050565b610d3b81610d26565b82525050565b6000602082019050610d566000830184610d32565b92915050565b6000602082019050610d716000830184610a2a565b92915050565b600073ffffffffffffffffffffffffffffffffffffffff82169050919050565b6000610da282610d77565b9050919050565b610db281610d97565b82525050565b6000602082019050610dcd6000830184610da9565b92915050565b600081519050919050565b600082825260208201905092915050565b6000819050602082019050919050565b610e08816109c7565b82525050565b610e1781610a39565b82525050565b600082825260208201905092915050565b6000610e3982610a52565b610e438185610e1d565b9350610e53818560208601610a6e565b610e5c81610a98565b840191505092915050565b6000606083016000830151610e7f6000860182610dff565b506020830151610e926020860182610e0e565b5060408301518482036040860152610eaa8282610e2e565b9150508091505092915050565b6000610ec38383610e67565b905092915050565b6000602082019050919050565b6000610ee382610dd3565b610eed8185610dde565b935083602082028501610eff85610def565b8060005b85811015610f3b5784840389528151610f1c8582610eb7565b9450610f2783610ecb565b925060208a01995050600181019050610f03565b50829750879550505050505092915050565b60006020820190508181036000830152610f678184610ed8565b905092915050565b7f496e646578206f7574206f6620626f756e647300000000000000000000000000600082015250565b6000610fa5601383610a5d565b9150610fb082610f6f565b602082019050919050565b60006020820190508181036000830152610fd481610f98565b9050919050565b7f4e487b7100000000000000000000000000000000000000000000000000000000600052603260045260246000fd5b7f4e487b7100000000000000000000000000000000000000000000000000000000600052602260045260246000fd5b6000600282049050600182168061105157607f821691505b6020821081036110645761106361100a565b5b50919050565b7f4e6f742074686520636f6e7472616374206f776e657200000000000000000000600082015250565b60006110a0601683610a5d565b91506110ab8261106a565b602082019050919050565b600060208201905081810360008301526110cf81611093565b9050919050565b600081905092915050565b60006110ec82610a52565b6110f681856110d6565b9350611106818560208601610a6e565b80840191505092915050565b600061111e82846110e1565b915081905092915050565b600060208201905081810360008301526111438184610aa9565b905092915050565b7f446576696365206e6f7420617574686f72697a65640000000000000000000000600082015250565b6000611181601583610a5d565b915061118c8261114b565b602082019050919050565b600060208201905081810360008301526111b081611174565b9050919050565b60008190508160005260206000209050919050565b60006020601f8301049050919050565b600082821b905092915050565b6000600883026112197fffffffffffffffffffffffffffffffffffffffffffffffffffffffffffffffff826111dc565b61122386836111dc565b95508019841693508086168417925050509392505050565b6000819050919050565b600061126061125b611256846109c7565b61123b565b6109c7565b9050919050565b6000819050919050565b61127a83611245565b61128e61128682611267565b8484546111e9565b825550505050565b600090565b6112a3611296565b6112ae818484611271565b505050565b5b818110156112d2576112c760008261129b565b6001810190506112b4565b5050565b601f821115611317576112e8816111b7565b6112f1846111cc565b81016020851015611300578190505b61131461130c856111cc565b8301826112b3565b50505b505050565b600082821c905092915050565b600061133a6000198460080261131c565b1980831691505092915050565b60006113538383611329565b9150826002028217905092915050565b61136c82610a52565b67ffffffffffffffff81111561138557611384610b2a565b5b61138f8254611039565b61139a8282856112d6565b600060209050601f8311600181146113cd57600084156113bb578287015190505b6113c58582611347565b86555061142d565b601f1984166113db866111b7565b60005b82811015611403578489015182556001820191506020850194506020810190506113de565b86831015611420578489015161141c601f891682611329565b8355505b6001600288020188555050505b505050505050565b600060408201905061144a6000830185610a43565b6114576020830184610a2a565b9392505050565b7f4e6f2072656164696e6773207965740000000000000000000000000000000000600082015250565b6000611494600f83610a5d565b915061149f8261145e565b602082019050919050565b600060208201905081810360008301526114c381611487565b9050919050565b7f4e487b7100000000000000000000000000000000000000000000000000000000600052601160045260246000fd5b6000611504826109c7565b915061150f836109c7565b9250828203905081811115611527576115266114ca565b5b9291505056fea2646970667358221220057282dd0d5b68530e2b8d03e9aa200b065a65c11818ff79f80e79e5095b2f2e64736f6c63430008140033",
  "linkReferences": {},
  "deployedLinkReferences": {}
}